:1000000000308A00802800004F344B3400344F34D5
:100010004B340034341BB618B01A361A31180000AD
:10002000B41AB718B219B41AB61A0001B419B21832
:10003000301CB218321A0001B51A351A351AB51B20
:10004000311A0001361B361B361A351AB61A000053
:100050000B08A3008B13831603178C170C140000D6
:10006000000083120313A31B8B1703170C087F399F
:1000700003197E280313A30003170D080313A4001C
:1000800003170F080313A50023080C1E4528990029
:10009000240803178D000313250803178F0003138B
:1000A0000B08A6008B13831603178C170C14000083
:1000B000000083120313A61B8B1703170C0D0E0DE4
:1000C0007F3903197E280313A30003170D080313B8
:1000D000A40003170F080313A50023080C1E6E28A5
:1000E0009900240803178D000313250803178F00B8
:1000F0008D0A03198F0A0313282803170313080016
:1001000003081F3983000A3083169900A63098002F
:10011000903083129800FF30A00083161F149F14A4
:100120001F159F1107309C00831300308600860145
:10013000831286018316861383128617A2018C1EF2
:10014000BF288C1EA1281A08A1000030FA00043034
:100150002102031DB228FA08031DB22883160610D7
:10016000831206140030FA0007302102031DBB2859
:10017000FA080319BF288316061083120610831687
:1001800086148312861C292922080319D428013ACF
:100190000319E428033A0319F428013A031904293E
:1001A000073A0319142924290A3003178D00003057
:1001B0008F00031328200D300C1EDC2899000A3014
:1001C0000C1EE02899002429103003178D00003000
:1001D0008F00031328200D300C1EEC2899000A30E4
:1001E0000C1EF02899002429163003178D000030CA
:1001F0008F00031328200D300C1EFC2899000A30B4
:100200000C1E0029990024291C3003178D00003092
:100210008F00031328200D300C1E0C2999000A3082
:100220000C1E102999002429223003178D0000305C
:100230008F00031328200D300C1E1C2999000A3052
:100240000C1E202999002429A20A2208053C031922
:06025000A2019F286300DB
:02400E007A3FF7
:00000001FF
;PIC16F877A
;CRC=ED45  CREATED="20-sep.-19 13:54"
