:1000000000308A00962800004F344B3400344F34BF
:100010004B340034B018B219B41AB61BB81C000027
:10002000B118B118B118B118B1180001321932194C
:100030003219321932190001B319B319B319B319AE
:10004000B3190001341A341A341A341A341A00005D
:100050000B08A3008B13831603178C170C140000D6
:10006000000083120313A31B8B1703170C087F399F
:1000700003197E280313A30003170D080313A4001C
:1000800003170F080313A50023080C1E4528990029
:10009000240803178D000313250803178F0003138B
:1000A0000B08A6008B13831603178C170C14000083
:1000B000000083120313A61B8B1703170C0D0E0DE4
:1000C0007F3903197E280313A30003170D080313B8
:1000D000A40003170F080313A50023080C1E6E28A5
:1000E0009900240803178D000313250803178F00B8
:1000F0008D0A03198F0A0313282803170313080016
:100100002430840083130008031993280630F80074
:10011000F701F70B8928F80B88287B30F700F70BDD
:100120008F28800B86288A110A124A2903081F3952
:100130008300813083169900A63098009030831296
:100140009800FF30A00083161F149F141F159F11E5
:1001500007309C00831300308600860183128601DD
:100160008316861383128617A2018C1EDA28831643
:1001700086100230831286068C1EBC281A08A10045
:100180000030FA0004302102031DCD28FA08031DB7
:10019000CD2883160610831206140030FA000730AB
:1001A0002102031DD628FA080319DA28831606103F
:1001B00083120610831686148312861C5029831618
:1001C000061104308312860622080319F428013A26
:1001D00003190429033A03191429013A031924299C
:1001E000073A0319342944290A3003178D000030D7
:1001F0008F00031328200D300C1EFC2899000A30B4
:100200000C1E002999004429103003178D0000307E
:100210008F00031328200D300C1E0C2999000A3082
:100220000C1E102999004429163003178D00003048
:100230008F00031328200D300C1E1C2999000A3052
:100240000C1E2029990044291C3003178D00003012
:100250008F00031328200D300C1E2C2999000A3022
:100260000C1E302999004429223003178D000030DC
:100270008F00031328200D300C1E3C2999000A30F2
:100280000C1E402999004429A20A0430A300FA3028
:10029000A4008028A30B47292208053C0319A201CA
:0402A000B52863001A
:02400E007A3FF7
:00000001FF
;PIC16F877A
;CRC=7913  CREATED="23-sep.-19 10:38"
